{
  "_format": "hh-sol-artifact-1",
  "contractName": "WPP",
  "sourceName": "contracts/WPP.sol",
  "abi": [
    {
      "inputs": [
        {
          "internalType": "address",
          "name": "_owner",
          "type": "address"
        }
      ],
      "stateMutability": "nonpayable",
      "type": "constructor"
    },
    {
      "anonymous": false,
      "inputs": [
        {
          "indexed": true,
          "internalType": "address",
          "name": "User",
          "type": "address"
        },
        {
          "indexed": false,
          "internalType": "uint256",
          "name": "PromotionId",
          "type": "uint256"
        }
      ],
      "name": "AccessGranted",
      "type": "event"
    },
    {
      "anonymous": false,
      "inputs": [
        {
          "indexed": false,
          "internalType": "address",
          "name": "User",
          "type": "address"
        },
        {
          "indexed": false,
          "internalType": "address",
          "name": "TokenAddress",
          "type": "address"
        },
        {
          "indexed": false,
          "internalType": "uint256",
          "name": "amount",
          "type": "uint256"
        },
        {
          "indexed": false,
          "internalType": "uint256",
          "name": "ContractBalance",
          "type": "uint256"
        }
      ],
      "name": "ClaimProcessed",
      "type": "event"
    },
    {
      "anonymous": false,
      "inputs": [
        {
          "indexed": true,
          "internalType": "address",
          "name": "TokenAddress",
          "type": "address"
        },
        {
          "indexed": false,
          "internalType": "uint256",
          "name": "PromotionId",
          "type": "uint256"
        },
        {
          "indexed": false,
          "internalType": "uint256",
          "name": "NumOftokensPerTrng",
          "type": "uint256"
        },
        {
          "indexed": false,
          "internalType": "string",
          "name": "IPFSCID",
          "type": "string"
        }
      ],
      "name": "NewPromotionCreated",
      "type": "event"
    },
    {
      "anonymous": false,
      "inputs": [
        {
          "indexed": true,
          "internalType": "address",
          "name": "TokenAddress",
          "type": "address"
        },
        {
          "indexed": false,
          "internalType": "uint256",
          "name": "PromotionId",
          "type": "uint256"
        },
        {
          "indexed": false,
          "internalType": "uint256",
          "name": "TokenBalance",
          "type": "uint256"
        }
      ],
      "name": "PromotionStarted",
      "type": "event"
    },
    {
      "anonymous": false,
      "inputs": [
        {
          "indexed": true,
          "internalType": "bytes32",
          "name": "role",
          "type": "bytes32"
        },
        {
          "indexed": true,
          "internalType": "bytes32",
          "name": "previousAdminRole",
          "type": "bytes32"
        },
        {
          "indexed": true,
          "internalType": "bytes32",
          "name": "newAdminRole",
          "type": "bytes32"
        }
      ],
      "name": "RoleAdminChanged",
      "type": "event"
    },
    {
      "anonymous": false,
      "inputs": [
        {
          "indexed": true,
          "internalType": "bytes32",
          "name": "role",
          "type": "bytes32"
        },
        {
          "indexed": true,
          "internalType": "address",
          "name": "account",
          "type": "address"
        },
        {
          "indexed": true,
          "internalType": "address",
          "name": "sender",
          "type": "address"
        }
      ],
      "name": "RoleGranted",
      "type": "event"
    },
    {
      "anonymous": false,
      "inputs": [
        {
          "indexed": true,
          "internalType": "bytes32",
          "name": "role",
          "type": "bytes32"
        },
        {
          "indexed": true,
          "internalType": "address",
          "name": "account",
          "type": "address"
        },
        {
          "indexed": true,
          "internalType": "address",
          "name": "sender",
          "type": "address"
        }
      ],
      "name": "RoleRevoked",
      "type": "event"
    },
    {
      "inputs": [],
      "name": "DEFAULT_ADMIN_ROLE",
      "outputs": [
        {
          "internalType": "bytes32",
          "name": "",
          "type": "bytes32"
        }
      ],
      "stateMutability": "view",
      "type": "function"
    },
    {
      "inputs": [
        {
          "internalType": "uint256",
          "name": "",
          "type": "uint256"
        }
      ],
      "name": "awaitingUpkeep",
      "outputs": [
        {
          "internalType": "address",
          "name": "",
          "type": "address"
        }
      ],
      "stateMutability": "view",
      "type": "function"
    },
    {
      "inputs": [
        {
          "internalType": "address",
          "name": "_newowner",
          "type": "address"
        }
      ],
      "name": "changeOwnership",
      "outputs": [],
      "stateMutability": "nonpayable",
      "type": "function"
    },
    {
      "inputs": [
        {
          "internalType": "bytes",
          "name": "checkData",
          "type": "bytes"
        }
      ],
      "name": "checkUpkeep",
      "outputs": [
        {
          "internalType": "bool",
          "name": "upkeepNeeded",
          "type": "bool"
        },
        {
          "internalType": "bytes",
          "name": "performData",
          "type": "bytes"
        }
      ],
      "stateMutability": "view",
      "type": "function"
    },
    {
      "inputs": [
        {
          "internalType": "address",
          "name": "_tokenAddress",
          "type": "address"
        },
        {
          "internalType": "uint256",
          "name": "_totalNumOftokens",
          "type": "uint256"
        },
        {
          "internalType": "uint256",
          "name": "_NumOftokensPerTrng",
          "type": "uint256"
        },
        {
          "internalType": "string",
          "name": "_cid",
          "type": "string"
        }
      ],
      "name": "createPromotion",
      "outputs": [],
      "stateMutability": "nonpayable",
      "type": "function"
    },
    {
      "inputs": [
        {
          "internalType": "address",
          "name": "_tokenAddress",
          "type": "address"
        }
      ],
      "name": "getPromotionInfo",
      "outputs": [
        {
          "internalType": "address",
          "name": "addrs",
          "type": "address"
        },
        {
          "internalType": "uint256",
          "name": "totalAmount",
          "type": "uint256"
        },
        {
          "internalType": "uint256",
          "name": "amtPerTraining",
          "type": "uint256"
        },
        {
          "internalType": "string",
          "name": "_IPFSCid",
          "type": "string"
        },
        {
          "internalType": "uint256",
          "name": "_promotionId",
          "type": "uint256"
        },
        {
          "internalType": "bool",
          "name": "_isActive",
          "type": "bool"
        },
        {
          "internalType": "enum WPP.PromotionState",
          "name": "_state",
          "type": "uint8"
        }
      ],
      "stateMutability": "view",
      "type": "function"
    },
    {
      "inputs": [
        {
          "internalType": "bytes32",
          "name": "role",
          "type": "bytes32"
        }
      ],
      "name": "getRoleAdmin",
      "outputs": [
        {
          "internalType": "bytes32",
          "name": "",
          "type": "bytes32"
        }
      ],
      "stateMutability": "view",
      "type": "function"
    },
    {
      "inputs": [
        {
          "internalType": "address",
          "name": "_user",
          "type": "address"
        },
        {
          "internalType": "address",
          "name": "_tokenAddress",
          "type": "address"
        }
      ],
      "name": "getUserCompldTraingInfo",
      "outputs": [
        {
          "internalType": "bool",
          "name": "",
          "type": "bool"
        }
      ],
      "stateMutability": "view",
      "type": "function"
    },
    {
      "inputs": [
        {
          "internalType": "bytes32",
          "name": "role",
          "type": "bytes32"
        },
        {
          "internalType": "address",
          "name": "account",
          "type": "address"
        }
      ],
      "name": "grantRole",
      "outputs": [],
      "stateMutability": "nonpayable",
      "type": "function"
    },
    {
      "inputs": [
        {
          "internalType": "bytes32",
          "name": "role",
          "type": "bytes32"
        },
        {
          "internalType": "address",
          "name": "account",
          "type": "address"
        }
      ],
      "name": "hasRole",
      "outputs": [
        {
          "internalType": "bool",
          "name": "",
          "type": "bool"
        }
      ],
      "stateMutability": "view",
      "type": "function"
    },
    {
      "inputs": [
        {
          "internalType": "address",
          "name": "_user",
          "type": "address"
        },
        {
          "internalType": "address",
          "name": "_tokenAddress",
          "type": "address"
        },
        {
          "internalType": "uint256",
          "name": "_promotionId",
          "type": "uint256"
        }
      ],
      "name": "markTrainingCompleted",
      "outputs": [],
      "stateMutability": "nonpayable",
      "type": "function"
    },
    {
      "inputs": [],
      "name": "owner",
      "outputs": [
        {
          "internalType": "address",
          "name": "",
          "type": "address"
        }
      ],
      "stateMutability": "view",
      "type": "function"
    },
    {
      "inputs": [
        {
          "internalType": "bytes",
          "name": "",
          "type": "bytes"
        }
      ],
      "name": "performUpkeep",
      "outputs": [],
      "stateMutability": "nonpayable",
      "type": "function"
    },
    {
      "inputs": [],
      "name": "promotionId",
      "outputs": [
        {
          "internalType": "uint256",
          "name": "",
          "type": "uint256"
        }
      ],
      "stateMutability": "view",
      "type": "function"
    },
    {
      "inputs": [
        {
          "internalType": "address",
          "name": "",
          "type": "address"
        }
      ],
      "name": "promotions",
      "outputs": [
        {
          "internalType": "address",
          "name": "tokenAddress",
          "type": "address"
        },
        {
          "internalType": "address",
          "name": "uploader",
          "type": "address"
        },
        {
          "internalType": "uint256",
          "name": "totalNumOftokens",
          "type": "uint256"
        },
        {
          "internalType": "uint256",
          "name": "NumOftokensPerTrng",
          "type": "uint256"
        },
        {
          "internalType": "string",
          "name": "cid",
          "type": "string"
        },
        {
          "internalType": "uint256",
          "name": "promotionId",
          "type": "uint256"
        },
        {
          "internalType": "bool",
          "name": "isActive",
          "type": "bool"
        },
        {
          "internalType": "enum WPP.PromotionState",
          "name": "state",
          "type": "uint8"
        }
      ],
      "stateMutability": "view",
      "type": "function"
    },
    {
      "inputs": [
        {
          "internalType": "bytes32",
          "name": "role",
          "type": "bytes32"
        },
        {
          "internalType": "address",
          "name": "account",
          "type": "address"
        }
      ],
      "name": "renounceRole",
      "outputs": [],
      "stateMutability": "nonpayable",
      "type": "function"
    },
    {
      "inputs": [
        {
          "internalType": "bytes32",
          "name": "role",
          "type": "bytes32"
        },
        {
          "internalType": "address",
          "name": "account",
          "type": "address"
        }
      ],
      "name": "revokeRole",
      "outputs": [],
      "stateMutability": "nonpayable",
      "type": "function"
    },
    {
      "inputs": [
        {
          "internalType": "address",
          "name": "_tokenAddress",
          "type": "address"
        }
      ],
      "name": "startPromotion",
      "outputs": [],
      "stateMutability": "nonpayable",
      "type": "function"
    },
    {
      "inputs": [
        {
          "internalType": "address",
          "name": "_user",
          "type": "address"
        },
        {
          "internalType": "address",
          "name": "_tokenAddress",
          "type": "address"
        },
        {
          "internalType": "uint256",
          "name": "_promotionId",
          "type": "uint256"
        }
      ],
      "name": "submitTokenClaim",
      "outputs": [],
      "stateMutability": "nonpayable",
      "type": "function"
    },
    {
      "inputs": [
        {
          "internalType": "bytes4",
          "name": "interfaceId",
          "type": "bytes4"
        }
      ],
      "name": "supportsInterface",
      "outputs": [
        {
          "internalType": "bool",
          "name": "",
          "type": "bool"
        }
      ],
      "stateMutability": "view",
      "type": "function"
    },
    {
      "stateMutability": "payable",
      "type": "receive"
    }
  ],
  "bytecode": "0x60806040523480156200001157600080fd5b506040516200412238038062004122833981810160405281019062000037919062000256565b80600260006101000a81548173ffffffffffffffffffffffffffffffffffffffff021916908373ffffffffffffffffffffffffffffffffffffffff1602179055506200008d6000801b82620000c660201b60201c565b620000bf7f555345525f524f4c45000000000000000000000000000000000000000000000082620000c660201b60201c565b50620002db565b620000d88282620000dc60201b60201c565b5050565b620000ee8282620001cd60201b60201c565b620001c957600160008084815260200190815260200160002060000160008373ffffffffffffffffffffffffffffffffffffffff1673ffffffffffffffffffffffffffffffffffffffff16815260200190815260200160002060006101000a81548160ff0219169083151502179055506200016e6200023760201b60201c565b73ffffffffffffffffffffffffffffffffffffffff168173ffffffffffffffffffffffffffffffffffffffff16837f2f8788117e7eff1d82e926ec794901d17c78024a50270940304540a733656f0d60405160405180910390a45b5050565b600080600084815260200190815260200160002060000160008373ffffffffffffffffffffffffffffffffffffffff1673ffffffffffffffffffffffffffffffffffffffff16815260200190815260200160002060009054906101000a900460ff16905092915050565b600033905090565b6000815190506200025081620002c1565b92915050565b6000602082840312156200026f576200026e620002bc565b5b60006200027f848285016200023f565b91505092915050565b600062000295826200029c565b9050919050565b600073ffffffffffffffffffffffffffffffffffffffff82169050919050565b600080fd5b620002cc8162000288565b8114620002d857600080fd5b50565b613e3780620002eb6000396000f3fe6080604052600436106101235760003560e01c80638ccbeb53116100a0578063ab3edd2c11610064578063ab3edd2c14610430578063ac932b7e14610459578063bd1b38d814610482578063d547741f146104ab578063f48b83c2146104d45761012a565b80638ccbeb53146103495780638da5cb5b1461037457806391d148541461039f578063a217fddf146103dc578063aa4523d0146104075761012a565b806336568abe116100e757806336568abe14610238578063367b2fa6146102615780634585e33b1461029e5780636e04ff0d146102c75780637433aae4146103055761012a565b806301ffc9a71461012f578063248a9ca31461016c57806324a7da94146101a95780632af4c31e146101e65780632f2ff15d1461020f5761012a565b3661012a57005b600080fd5b34801561013b57600080fd5b5061015660048036038101906101519190612e80565b610517565b604051610163919061341a565b60405180910390f35b34801561017857600080fd5b50610193600480360381019061018e9190612e13565b610591565b6040516101a09190613465565b60405180910390f35b3480156101b557600080fd5b506101d060048036038101906101cb9190612f43565b6105b0565b6040516101dd9190613296565b60405180910390f35b3480156101f257600080fd5b5061020d60048036038101906102089190612c9e565b6105ef565b005b34801561021b57600080fd5b5061023660048036038101906102319190612e40565b610641565b005b34801561024457600080fd5b5061025f600480360381019061025a9190612e40565b610662565b005b34801561026d57600080fd5b5061028860048036038101906102839190612ccb565b6106e5565b604051610295919061341a565b60405180910390f35b3480156102aa57600080fd5b506102c560048036038101906102c09190612ead565b610779565b005b3480156102d357600080fd5b506102ee60048036038101906102e99190612ead565b610b10565b6040516102fc929190613435565b60405180910390f35b34801561031157600080fd5b5061032c60048036038101906103279190612c9e565b610ec1565b6040516103409897969594939291906132f6565b60405180910390f35b34801561035557600080fd5b5061035e610feb565b60405161036b91906135e2565b60405180910390f35b34801561038057600080fd5b50610389610ff1565b6040516103969190613296565b60405180910390f35b3480156103ab57600080fd5b506103c660048036038101906103c19190612e40565b611017565b6040516103d3919061341a565b60405180910390f35b3480156103e857600080fd5b506103f1611081565b6040516103fe9190613465565b60405180910390f35b34801561041357600080fd5b5061042e60048036038101906104299190612c9e565b611088565b005b34801561043c57600080fd5b5061045760048036038101906104529190612d0b565b61126d565b005b34801561046557600080fd5b50610480600480360381019061047b9190612d0b565b6119e7565b005b34801561048e57600080fd5b506104a960048036038101906104a49190612d5e565b611cae565b005b3480156104b757600080fd5b506104d260048036038101906104cd9190612e40565b612109565b005b3480156104e057600080fd5b506104fb60048036038101906104f69190612c9e565b61212a565b60405161050e97969594939291906133a4565b60405180910390f35b60007f7965db0b000000000000000000000000000000000000000000000000000000007bffffffffffffffffffffffffffffffffffffffffffffffffffffffff1916827bffffffffffffffffffffffffffffffffffffffffffffffffffffffff1916148061058a5750610589826123e6565b5b9050919050565b6000806000838152602001908152602001600020600101549050919050565b600381815481106105c057600080fd5b906000526020600020016000915054906101000a900473ffffffffffffffffffffffffffffffffffffffff1681565b6000801b6105fc81612450565b81600260006101000a81548173ffffffffffffffffffffffffffffffffffffffff021916908373ffffffffffffffffffffffffffffffffffffffff1602179055505050565b61064a82610591565b61065381612450565b61065d8383612464565b505050565b61066a612544565b73ffffffffffffffffffffffffffffffffffffffff168173ffffffffffffffffffffffffffffffffffffffff16146106d7576040517f08c379a00000000000000000000000000000000000000000000000000000000081526004016106ce906135c2565b60405180910390fd5b6106e1828261254c565b5050565b6000600560008473ffffffffffffffffffffffffffffffffffffffff1673ffffffffffffffffffffffffffffffffffffffff16815260200190815260200160002060008373ffffffffffffffffffffffffffffffffffffffff1673ffffffffffffffffffffffffffffffffffffffff16815260200190815260200160002060009054906101000a900460ff16905092915050565b60005b600380549050811015610b0b57600060046000600384815481106107a3576107a26139f7565b5b9060005260206000200160009054906101000a900473ffffffffffffffffffffffffffffffffffffffff1673ffffffffffffffffffffffffffffffffffffffff1673ffffffffffffffffffffffffffffffffffffffff168152602001908152602001600020604051806101000160405290816000820160009054906101000a900473ffffffffffffffffffffffffffffffffffffffff1673ffffffffffffffffffffffffffffffffffffffff1673ffffffffffffffffffffffffffffffffffffffff1681526020016001820160009054906101000a900473ffffffffffffffffffffffffffffffffffffffff1673ffffffffffffffffffffffffffffffffffffffff1673ffffffffffffffffffffffffffffffffffffffff16815260200160028201548152602001600382015481526020016004820180546108e4906138be565b80601f0160208091040260200160405190810160405280929190818152602001828054610910906138be565b801561095d5780601f106109325761010080835404028352916020019161095d565b820191906000526020600020905b81548152906001019060200180831161094057829003601f168201915b50505050508152602001600582015481526020016006820160009054906101000a900460ff161515151581526020016006820160019054906101000a900460ff1660038111156109b0576109af613999565b5b60038111156109c2576109c1613999565b5b8152505090508060400151600383815481106109e1576109e06139f7565b5b9060005260206000200160009054906101000a900473ffffffffffffffffffffffffffffffffffffffff1673ffffffffffffffffffffffffffffffffffffffff166370a08231306040518263ffffffff1660e01b8152600401610a449190613296565b60206040518083038186803b158015610a5c57600080fd5b505afa158015610a70573d6000803e3d6000fd5b505050506040513d601f19601f82011682018060405250810190610a949190612f70565b10158015610aaa5750600015158160c001511515145b15610af757610af660038381548110610ac657610ac56139f7565b5b9060005260206000200160009054906101000a900473ffffffffffffffffffffffffffffffffffffffff16611088565b5b508080610b0390613921565b91505061077c565b505050565b60006060600080600090505b600380549050811015610e6e57600060038281548110610b3f57610b3e6139f7565b5b9060005260206000200160009054906101000a900473ffffffffffffffffffffffffffffffffffffffff1690506000600460008373ffffffffffffffffffffffffffffffffffffffff1673ffffffffffffffffffffffffffffffffffffffff168152602001908152602001600020604051806101000160405290816000820160009054906101000a900473ffffffffffffffffffffffffffffffffffffffff1673ffffffffffffffffffffffffffffffffffffffff1673ffffffffffffffffffffffffffffffffffffffff1681526020016001820160009054906101000a900473ffffffffffffffffffffffffffffffffffffffff1673ffffffffffffffffffffffffffffffffffffffff1673ffffffffffffffffffffffffffffffffffffffff1681526020016002820154815260200160038201548152602001600482018054610c89906138be565b80601f0160208091040260200160405190810160405280929190818152602001828054610cb5906138be565b8015610d025780601f10610cd757610100808354040283529160200191610d02565b820191906000526020600020905b815481529060010190602001808311610ce557829003601f168201915b50505050508152602001600582015481526020016006820160009054906101000a900460ff161515151581526020016006820160019054906101000a900460ff166003811115610d5557610d54613999565b5b6003811115610d6757610d66613999565b5b81525050905080604001518273ffffffffffffffffffffffffffffffffffffffff166370a08231306040518263ffffffff1660e01b8152600401610dab9190613296565b60206040518083038186803b158015610dc357600080fd5b505afa158015610dd7573d6000803e3d6000fd5b505050506040513d601f19601f82011682018060405250810190610dfb9190612f70565b10158015610e115750600015158160c001511515145b15610e595760019350610e586040518060400160405280600a81526020017f666f756e64546f6b656e0000000000000000000000000000000000000000000081525061262d565b5b50508080610e6690613921565b915050610b1c565b5080925084848080601f016020809104026020016040519081016040528093929190818152602001838380828437600081840152601f19601f820116905080830192505050505050509150509250929050565b60046020528060005260406000206000915090508060000160009054906101000a900473ffffffffffffffffffffffffffffffffffffffff16908060010160009054906101000a900473ffffffffffffffffffffffffffffffffffffffff1690806002015490806003015490806004018054610f3c906138be565b80601f0160208091040260200160405190810160405280929190818152602001828054610f68906138be565b8015610fb55780601f10610f8a57610100808354040283529160200191610fb5565b820191906000526020600020905b815481529060010190602001808311610f9857829003601f168201915b5050505050908060050154908060060160009054906101000a900460ff16908060060160019054906101000a900460ff16905088565b60015481565b600260009054906101000a900473ffffffffffffffffffffffffffffffffffffffff1681565b600080600084815260200190815260200160002060000160008373ffffffffffffffffffffffffffffffffffffffff1673ffffffffffffffffffffffffffffffffffffffff16815260200190815260200160002060009054906101000a900460ff16905092915050565b6000801b81565b6000600460008373ffffffffffffffffffffffffffffffffffffffff1673ffffffffffffffffffffffffffffffffffffffff1681526020019081526020016000209050600160038111156110df576110de613999565b5b8160060160019054906101000a900460ff16600381111561110357611102613999565b5b14611143576040517f08c379a000000000000000000000000000000000000000000000000000000000815260040161113a906134c2565b60405180910390fd5b60018160060160006101000a81548160ff02191690831515021790555060028160060160016101000a81548160ff0219169083600381111561118857611187613999565b5b02179055508173ffffffffffffffffffffffffffffffffffffffff167fe794c11065d7c442ceeceacd9fbd44436623c5da51c894fb2ddf3507ef61a90182600501548473ffffffffffffffffffffffffffffffffffffffff166370a08231306040518263ffffffff1660e01b81526004016112039190613296565b60206040518083038186803b15801561121b57600080fd5b505afa15801561122f573d6000803e3d6000fd5b505050506040513d601f19601f820116820180604052508101906112539190612f70565b6040516112619291906135fd565b60405180910390a25050565b7f555345525f524f4c45000000000000000000000000000000000000000000000061129781612450565b82600460008273ffffffffffffffffffffffffffffffffffffffff1673ffffffffffffffffffffffffffffffffffffffff168152602001908152602001600020600301548173ffffffffffffffffffffffffffffffffffffffff166370a08231306040518263ffffffff1660e01b81526004016113149190613296565b60206040518083038186803b15801561132c57600080fd5b505afa158015611340573d6000803e3d6000fd5b505050506040513d601f19601f820116820180604052508101906113649190612f70565b10156113a5576040517f08c379a000000000000000000000000000000000000000000000000000000000815260040161139c90613562565b60405180910390fd5b8360011515600460008373ffffffffffffffffffffffffffffffffffffffff1673ffffffffffffffffffffffffffffffffffffffff16815260200190815260200160002060060160009054906101000a900460ff1615151461143c576040517f08c379a0000000000000000000000000000000000000000000000000000000008152600401611433906135a2565b60405180910390fd5b60011515600560008873ffffffffffffffffffffffffffffffffffffffff1673ffffffffffffffffffffffffffffffffffffffff16815260200190815260200160002060008773ffffffffffffffffffffffffffffffffffffffff1673ffffffffffffffffffffffffffffffffffffffff16815260200190815260200160002060009054906101000a900460ff1615151461150c576040517f08c379a000000000000000000000000000000000000000000000000000000000815260040161150390613582565b60405180910390fd5b60001515600660003373ffffffffffffffffffffffffffffffffffffffff1673ffffffffffffffffffffffffffffffffffffffff16815260200190815260200160002060008773ffffffffffffffffffffffffffffffffffffffff1673ffffffffffffffffffffffffffffffffffffffff16815260200190815260200160002060009054906101000a900460ff161515146115dc576040517f08c379a00000000000000000000000000000000000000000000000000000000081526004016115d390613502565b60405180910390fd5b6001600660003373ffffffffffffffffffffffffffffffffffffffff1673ffffffffffffffffffffffffffffffffffffffff16815260200190815260200160002060008773ffffffffffffffffffffffffffffffffffffffff1673ffffffffffffffffffffffffffffffffffffffff16815260200190815260200160002060006101000a81548160ff0219169083151502179055506000600460008773ffffffffffffffffffffffffffffffffffffffff1673ffffffffffffffffffffffffffffffffffffffff168152602001908152602001600020604051806101000160405290816000820160009054906101000a900473ffffffffffffffffffffffffffffffffffffffff1673ffffffffffffffffffffffffffffffffffffffff1673ffffffffffffffffffffffffffffffffffffffff1681526020016001820160009054906101000a900473ffffffffffffffffffffffffffffffffffffffff1673ffffffffffffffffffffffffffffffffffffffff1673ffffffffffffffffffffffffffffffffffffffff168152602001600282015481526020016003820154815260200160048201805461178e906138be565b80601f01602080910402602001604051908101604052809291908181526020018280546117ba906138be565b80156118075780601f106117dc57610100808354040283529160200191611807565b820191906000526020600020905b8154815290600101906020018083116117ea57829003601f168201915b50505050508152602001600582015481526020016006820160009054906101000a900460ff161515151581526020016006820160019054906101000a900460ff16600381111561185a57611859613999565b5b600381111561186c5761186b613999565b5b815250509050600081606001519050611884816126c6565b60008790508073ffffffffffffffffffffffffffffffffffffffff1663a9059cbb8a846040518363ffffffff1660e01b81526004016118c492919061337b565b602060405180830381600087803b1580156118de57600080fd5b505af11580156118f2573d6000803e3d6000fd5b505050506040513d601f19601f820116820180604052508101906119169190612de6565b507f26013fd0446ac2b5e50dddd7efe58aa2b86005a2ea1644b697b6e05529c548d08989848b73ffffffffffffffffffffffffffffffffffffffff166370a08231306040518263ffffffff1660e01b81526004016119749190613296565b60206040518083038186803b15801561198c57600080fd5b505afa1580156119a0573d6000803e3d6000fd5b505050506040513d601f19601f820116820180604052508101906119c49190612f70565b6040516119d494939291906132b1565b60405180910390a1505050505050505050565b6000801b6119f481612450565b82600460008273ffffffffffffffffffffffffffffffffffffffff1673ffffffffffffffffffffffffffffffffffffffff168152602001908152602001600020600301548173ffffffffffffffffffffffffffffffffffffffff166370a08231306040518263ffffffff1660e01b8152600401611a719190613296565b60206040518083038186803b158015611a8957600080fd5b505afa158015611a9d573d6000803e3d6000fd5b505050506040513d601f19601f82011682018060405250810190611ac19190612f70565b1015611b02576040517f08c379a0000000000000000000000000000000000000000000000000000000008152600401611af990613562565b60405180910390fd5b8360011515600460008373ffffffffffffffffffffffffffffffffffffffff1673ffffffffffffffffffffffffffffffffffffffff16815260200190815260200160002060060160009054906101000a900460ff16151514611b99576040517f08c379a0000000000000000000000000000000000000000000000000000000008152600401611b90906135a2565b60405180910390fd5b6001600560008873ffffffffffffffffffffffffffffffffffffffff1673ffffffffffffffffffffffffffffffffffffffff16815260200190815260200160002060008773ffffffffffffffffffffffffffffffffffffffff1673ffffffffffffffffffffffffffffffffffffffff16815260200190815260200160002060006101000a81548160ff021916908315150217905550611c587f555345525f524f4c45000000000000000000000000000000000000000000000087610641565b8573ffffffffffffffffffffffffffffffffffffffff167fb4c6779ceb4a20f448e76a0e11f39bd183cff9c9dbac53df6bfcc202e2eb32f185604051611c9e91906135e2565b60405180910390a2505050505050565b60008411611cf1576040517f08c379a0000000000000000000000000000000000000000000000000000000008152600401611ce890613542565b60405180910390fd5b60008311611d34576040517f08c379a0000000000000000000000000000000000000000000000000000000008152600401611d2b90613522565b60405180910390fd5b600085905060008173ffffffffffffffffffffffffffffffffffffffff166318160ddd6040518163ffffffff1660e01b815260040160206040518083038186803b158015611d8157600080fd5b505afa158015611d95573d6000803e3d6000fd5b505050506040513d601f19601f82011682018060405250810190611db99190612f70565b11611df9576040517f08c379a0000000000000000000000000000000000000000000000000000000008152600401611df0906134e2565b60405180910390fd5b611e7f8173ffffffffffffffffffffffffffffffffffffffff166318160ddd6040518163ffffffff1660e01b815260040160206040518083038186803b158015611e4257600080fd5b505afa158015611e56573d6000803e3d6000fd5b505050506040513d601f19601f82011682018060405250810190611e7a9190612f70565b6126c6565b611f0a8173ffffffffffffffffffffffffffffffffffffffff166306fdde036040518163ffffffff1660e01b815260040160006040518083038186803b158015611ec857600080fd5b505afa158015611edc573d6000803e3d6000fd5b505050506040513d6000823e3d601f19601f82011682018060405250810190611f059190612efa565b61262d565b600160008154611f1990613921565b919050819055506000600460008873ffffffffffffffffffffffffffffffffffffffff1673ffffffffffffffffffffffffffffffffffffffff1681526020019081526020016000209050868160000160006101000a81548173ffffffffffffffffffffffffffffffffffffffff021916908373ffffffffffffffffffffffffffffffffffffffff160217905550338160010160006101000a81548173ffffffffffffffffffffffffffffffffffffffff021916908373ffffffffffffffffffffffffffffffffffffffff160217905550858160020181905550848160030181905550838382600401919061200e929190612a61565b50600154816005018190555060018160060160016101000a81548160ff0219169083600381111561204257612041613999565b5b02179055506003879080600181540180825580915050600190039060005260206000200160009091909190916101000a81548173ffffffffffffffffffffffffffffffffffffffff021916908373ffffffffffffffffffffffffffffffffffffffff1602179055508673ffffffffffffffffffffffffffffffffffffffff167f345f2e9eab77bb804e60ee50b9d19c58c3b404e83bc9165b3861bfe30776b94a6001548787876040516120f89493929190613626565b60405180910390a250505050505050565b61211282610591565b61211b81612450565b612125838361254c565b505050565b600080600060606000806000600460008973ffffffffffffffffffffffffffffffffffffffff1673ffffffffffffffffffffffffffffffffffffffff16815260200190815260200160002060000160009054906101000a900473ffffffffffffffffffffffffffffffffffffffff169650600460008973ffffffffffffffffffffffffffffffffffffffff1673ffffffffffffffffffffffffffffffffffffffff168152602001908152602001600020600201549550600460008973ffffffffffffffffffffffffffffffffffffffff1673ffffffffffffffffffffffffffffffffffffffff168152602001908152602001600020600301549450600460008973ffffffffffffffffffffffffffffffffffffffff1673ffffffffffffffffffffffffffffffffffffffff1681526020019081526020016000206004018054612272906138be565b80601f016020809104026020016040519081016040528092919081815260200182805461229e906138be565b80156122eb5780601f106122c0576101008083540402835291602001916122eb565b820191906000526020600020905b8154815290600101906020018083116122ce57829003601f168201915b50505050509350600460008973ffffffffffffffffffffffffffffffffffffffff1673ffffffffffffffffffffffffffffffffffffffff168152602001908152602001600020600501549250600460008973ffffffffffffffffffffffffffffffffffffffff1673ffffffffffffffffffffffffffffffffffffffff16815260200190815260200160002060060160009054906101000a900460ff169150600460008973ffffffffffffffffffffffffffffffffffffffff1673ffffffffffffffffffffffffffffffffffffffff16815260200190815260200160002060060160019054906101000a900460ff169050919395979092949650565b60007f01ffc9a7000000000000000000000000000000000000000000000000000000007bffffffffffffffffffffffffffffffffffffffffffffffffffffffff1916827bffffffffffffffffffffffffffffffffffffffffffffffffffffffff1916149050919050565b6124618161245c612544565b61275f565b50565b61246e8282611017565b61254057600160008084815260200190815260200160002060000160008373ffffffffffffffffffffffffffffffffffffffff1673ffffffffffffffffffffffffffffffffffffffff16815260200190815260200160002060006101000a81548160ff0219169083151502179055506124e5612544565b73ffffffffffffffffffffffffffffffffffffffff168173ffffffffffffffffffffffffffffffffffffffff16837f2f8788117e7eff1d82e926ec794901d17c78024a50270940304540a733656f0d60405160405180910390a45b5050565b600033905090565b6125568282611017565b1561262957600080600084815260200190815260200160002060000160008373ffffffffffffffffffffffffffffffffffffffff1673ffffffffffffffffffffffffffffffffffffffff16815260200190815260200160002060006101000a81548160ff0219169083151502179055506125ce612544565b73ffffffffffffffffffffffffffffffffffffffff168173ffffffffffffffffffffffffffffffffffffffff16837ff6391f5c32d9c69d2a47ea670b442974b53935d1edc7fd64eb21e047a839171b60405160405180910390a45b5050565b6126c3816040516024016126419190613480565b6040516020818303038152906040527f41304fac000000000000000000000000000000000000000000000000000000007bffffffffffffffffffffffffffffffffffffffffffffffffffffffff19166020820180517bffffffffffffffffffffffffffffffffffffffffffffffffffffffff83818316178352505050506127fc565b50565b61275c816040516024016126da91906135e2565b6040516020818303038152906040527ff5b1bba9000000000000000000000000000000000000000000000000000000007bffffffffffffffffffffffffffffffffffffffffffffffffffffffff19166020820180517bffffffffffffffffffffffffffffffffffffffffffffffffffffffff83818316178352505050506127fc565b50565b6127698282611017565b6127f85761278e8173ffffffffffffffffffffffffffffffffffffffff166014612825565b61279c8360001c6020612825565b6040516020016127ad92919061325c565b6040516020818303038152906040526040517f08c379a00000000000000000000000000000000000000000000000000000000081526004016127ef9190613480565b60405180910390fd5b5050565b60008151905060006a636f6e736f6c652e6c6f679050602083016000808483855afa5050505050565b6060600060028360026128389190613755565b61284291906136ff565b67ffffffffffffffff81111561285b5761285a613a26565b5b6040519080825280601f01601f19166020018201604052801561288d5781602001600182028036833780820191505090505b5090507f3000000000000000000000000000000000000000000000000000000000000000816000815181106128c5576128c46139f7565b5b60200101907effffffffffffffffffffffffffffffffffffffffffffffffffffffffffffff1916908160001a9053507f780000000000000000000000000000000000000000000000000000000000000081600181518110612929576129286139f7565b5b60200101907effffffffffffffffffffffffffffffffffffffffffffffffffffffffffffff1916908160001a905350600060018460026129699190613755565b61297391906136ff565b90505b6001811115612a13577f3031323334353637383961626364656600000000000000000000000000000000600f8616601081106129b5576129b46139f7565b5b1a60f81b8282815181106129cc576129cb6139f7565b5b60200101907effffffffffffffffffffffffffffffffffffffffffffffffffffffffffffff1916908160001a905350600485901c945080612a0c90613894565b9050612976565b5060008414612a57576040517f08c379a0000000000000000000000000000000000000000000000000000000008152600401612a4e906134a2565b60405180910390fd5b8091505092915050565b828054612a6d906138be565b90600052602060002090601f016020900481019282612a8f5760008555612ad6565b82601f10612aa857803560ff1916838001178555612ad6565b82800160010185558215612ad6579182015b82811115612ad5578235825591602001919060010190612aba565b5b509050612ae39190612ae7565b5090565b5b80821115612b00576000816000905550600101612ae8565b5090565b6000612b17612b128461368b565b613666565b905082815260208101848484011115612b3357612b32613a64565b5b612b3e848285613861565b509392505050565b600081359050612b5581613d8e565b92915050565b600081519050612b6a81613da5565b92915050565b600081359050612b7f81613dbc565b92915050565b600081359050612b9481613dd3565b92915050565b60008083601f840112612bb057612baf613a5a565b5b8235905067ffffffffffffffff811115612bcd57612bcc613a55565b5b602083019150836001820283011115612be957612be8613a5f565b5b9250929050565b60008083601f840112612c0657612c05613a5a565b5b8235905067ffffffffffffffff811115612c2357612c22613a55565b5b602083019150836001820283011115612c3f57612c3e613a5f565b5b9250929050565b600082601f830112612c5b57612c5a613a5a565b5b8151612c6b848260208601612b04565b91505092915050565b600081359050612c8381613dea565b92915050565b600081519050612c9881613dea565b92915050565b600060208284031215612cb457612cb3613a6e565b5b6000612cc284828501612b46565b91505092915050565b60008060408385031215612ce257612ce1613a6e565b5b6000612cf085828601612b46565b9250506020612d0185828601612b46565b9150509250929050565b600080600060608486031215612d2457612d23613a6e565b5b6000612d3286828701612b46565b9350506020612d4386828701612b46565b9250506040612d5486828701612c74565b9150509250925092565b600080600080600060808688031215612d7a57612d79613a6e565b5b6000612d8888828901612b46565b9550506020612d9988828901612c74565b9450506040612daa88828901612c74565b935050606086013567ffffffffffffffff811115612dcb57612dca613a69565b5b612dd788828901612bf0565b92509250509295509295909350565b600060208284031215612dfc57612dfb613a6e565b5b6000612e0a84828501612b5b565b91505092915050565b600060208284031215612e2957612e28613a6e565b5b6000612e3784828501612b70565b91505092915050565b60008060408385031215612e5757612e56613a6e565b5b6000612e6585828601612b70565b9250506020612e7685828601612b46565b9150509250929050565b600060208284031215612e9657612e95613a6e565b5b6000612ea484828501612b85565b91505092915050565b60008060208385031215612ec457612ec3613a6e565b5b600083013567ffffffffffffffff811115612ee257612ee1613a69565b5b612eee85828601612b9a565b92509250509250929050565b600060208284031215612f1057612f0f613a6e565b5b600082015167ffffffffffffffff811115612f2e57612f2d613a69565b5b612f3a84828501612c46565b91505092915050565b600060208284031215612f5957612f58613a6e565b5b6000612f6784828501612c74565b91505092915050565b600060208284031215612f8657612f85613a6e565b5b6000612f9484828501612c89565b91505092915050565b612fa6816137af565b82525050565b612fb5816137c1565b82525050565b612fc4816137cd565b82525050565b6000612fd5826136bc565b612fdf81856136d2565b9350612fef818560208601613861565b612ff881613a73565b840191505092915050565b61300c81613840565b82525050565b600061301e83856136e3565b935061302b838584613852565b61303483613a73565b840190509392505050565b600061304a826136c7565b61305481856136e3565b9350613064818560208601613861565b61306d81613a73565b840191505092915050565b6000613083826136c7565b61308d81856136f4565b935061309d818560208601613861565b80840191505092915050565b60006130b66020836136e3565b91506130c182613a84565b602082019050919050565b60006130d9601f836136e3565b91506130e482613aad565b602082019050919050565b60006130fc6021836136e3565b915061310782613ad6565b604082019050919050565b600061311f6031836136e3565b915061312a82613b25565b604082019050919050565b60006131426040836136e3565b915061314d82613b74565b604082019050919050565b60006131656029836136e3565b915061317082613bc3565b604082019050919050565b60006131886021836136e3565b915061319382613c12565b604082019050919050565b60006131ab6028836136e3565b91506131b682613c61565b604082019050919050565b60006131ce601b836136e3565b91506131d982613cb0565b602082019050919050565b60006131f16017836136f4565b91506131fc82613cd9565b601782019050919050565b60006132146011836136f4565b915061321f82613d02565b601182019050919050565b6000613237602f836136e3565b915061324282613d2b565b604082019050919050565b61325681613836565b82525050565b6000613267826131e4565b91506132738285613078565b915061327e82613207565b915061328a8284613078565b91508190509392505050565b60006020820190506132ab6000830184612f9d565b92915050565b60006080820190506132c66000830187612f9d565b6132d36020830186612f9d565b6132e0604083018561324d565b6132ed606083018461324d565b95945050505050565b60006101008201905061330c600083018b612f9d565b613319602083018a612f9d565b613326604083018961324d565b613333606083018861324d565b8181036080830152613345818761303f565b905061335460a083018661324d565b61336160c0830185612fac565b61336e60e0830184613003565b9998505050505050505050565b60006040820190506133906000830185612f9d565b61339d602083018461324d565b9392505050565b600060e0820190506133b9600083018a612f9d565b6133c6602083018961324d565b6133d3604083018861324d565b81810360608301526133e5818761303f565b90506133f4608083018661324d565b61340160a0830185612fac565b61340e60c0830184613003565b98975050505050505050565b600060208201905061342f6000830184612fac565b92915050565b600060408201905061344a6000830185612fac565b818103602083015261345c8184612fca565b90509392505050565b600060208201905061347a6000830184612fbb565b92915050565b6000602082019050818103600083015261349a818461303f565b905092915050565b600060208201905081810360008301526134bb816130a9565b9050919050565b600060208201905081810360008301526134db816130cc565b9050919050565b600060208201905081810360008301526134fb816130ef565b9050919050565b6000602082019050818103600083015261351b81613112565b9050919050565b6000602082019050818103600083015261353b81613135565b9050919050565b6000602082019050818103600083015261355b81613158565b9050919050565b6000602082019050818103600083015261357b8161317b565b9050919050565b6000602082019050818103600083015261359b8161319e565b9050919050565b600060208201905081810360008301526135bb816131c1565b9050919050565b600060208201905081810360008301526135db8161322a565b9050919050565b60006020820190506135f7600083018461324d565b92915050565b6000604082019050613612600083018561324d565b61361f602083018461324d565b9392505050565b600060608201905061363b600083018761324d565b613648602083018661324d565b818103604083015261365b818486613012565b905095945050505050565b6000613670613681565b905061367c82826138f0565b919050565b6000604051905090565b600067ffffffffffffffff8211156136a6576136a5613a26565b5b6136af82613a73565b9050602081019050919050565b600081519050919050565b600081519050919050565b600082825260208201905092915050565b600082825260208201905092915050565b600081905092915050565b600061370a82613836565b915061371583613836565b9250827fffffffffffffffffffffffffffffffffffffffffffffffffffffffffffffffff0382111561374a5761374961396a565b5b828201905092915050565b600061376082613836565b915061376b83613836565b9250817fffffffffffffffffffffffffffffffffffffffffffffffffffffffffffffffff04831182151516156137a4576137a361396a565b5b828202905092915050565b60006137ba82613816565b9050919050565b60008115159050919050565b6000819050919050565b60007fffffffff0000000000000000000000000000000000000000000000000000000082169050919050565b600081905061381182613d7a565b919050565b600073ffffffffffffffffffffffffffffffffffffffff82169050919050565b6000819050919050565b600061384b82613803565b9050919050565b82818337600083830152505050565b60005b8381101561387f578082015181840152602081019050613864565b8381111561388e576000848401525b50505050565b600061389f82613836565b915060008214156138b3576138b261396a565b5b600182039050919050565b600060028204905060018216806138d657607f821691505b602082108114156138ea576138e96139c8565b5b50919050565b6138f982613a73565b810181811067ffffffffffffffff8211171561391857613917613a26565b5b80604052505050565b600061392c82613836565b91507fffffffffffffffffffffffffffffffffffffffffffffffffffffffffffffffff82141561395f5761395e61396a565b5b600182019050919050565b7f4e487b7100000000000000000000000000000000000000000000000000000000600052601160045260246000fd5b7f4e487b7100000000000000000000000000000000000000000000000000000000600052602160045260246000fd5b7f4e487b7100000000000000000000000000000000000000000000000000000000600052602260045260246000fd5b7f4e487b7100000000000000000000000000000000000000000000000000000000600052603260045260246000fd5b7f4e487b7100000000000000000000000000000000000000000000000000000000600052604160045260246000fd5b600080fd5b600080fd5b600080fd5b600080fd5b600080fd5b600080fd5b6000601f19601f8301169050919050565b7f537472696e67733a20686578206c656e67746820696e73756666696369656e74600082015250565b7f50726f6d6f74696f6e206973206e6f7420696e20736574757020737461746500600082015250565b7f546f6b656e20646f6573206e6f74206861766520656e6f75676820737570706c60008201527f7900000000000000000000000000000000000000000000000000000000000000602082015250565b7f596f7520616c726561647920636c61696d65642074686520746f6b656e73206660008201527f6f72207468697320747261696e696e6721000000000000000000000000000000602082015250565b7f50726f6d6f74696f6e2063616e6e6f742062652063726561746564207769746860008201527f203020676976652d6177617920746f6b656e732070657220747261696e696e67602082015250565b7f50726f6d6f74696f6e2063616e6e6f742062652063726561746564207769746860008201527f203020746f6b656e730000000000000000000000000000000000000000000000602082015250565b7f4e6f7420656e6f75676820746f6b656e7320746f20696e63656e746976697a6560008201527f2100000000000000000000000000000000000000000000000000000000000000602082015250565b7f596f752068617665206e6f7420636f6d706c657465642074686520747261696e60008201527f696e672079657421000000000000000000000000000000000000000000000000602082015250565b7f536f7272792c2070726f6d6f74696f6e2068617320656e646564210000000000600082015250565b7f416363657373436f6e74726f6c3a206163636f756e7420000000000000000000600082015250565b7f206973206d697373696e6720726f6c6520000000000000000000000000000000600082015250565b7f416363657373436f6e74726f6c3a2063616e206f6e6c792072656e6f756e636560008201527f20726f6c657320666f722073656c660000000000000000000000000000000000602082015250565b60048110613d8b57613d8a613999565b5b50565b613d97816137af565b8114613da257600080fd5b50565b613dae816137c1565b8114613db957600080fd5b50565b613dc5816137cd565b8114613dd057600080fd5b50565b613ddc816137d7565b8114613de757600080fd5b50565b613df381613836565b8114613dfe57600080fd5b5056fea264697066735822122098d4bfcbc4d010edd94ccdda3e04d12623de431416ac4ba9c56a78a2454e245264736f6c63430008070033",
  "linkReferences": {},
  "deployedLinkReferences": {}
}